:100000000C9435000C945D000C945D000C945D0024
:100010000C945D000C945D000C945D000C945D00EC
:100020000C945D000C945D000C945D000C945D00DC
:100030000C945D000C945D000C945D000C945D00CC
:100040000C947E020C945D000C94EE020C94C80299
:100050000C945D000C945D000C945D000C945D00AC
:100060000C945D000C945D003F0411241FBECFEF83
:10007000D8E0DEBFCDBF22E0A8E7B1E001C01D920D
:10008000A332B207E1F711E0A0E0B1E0EAE3FDE05E
:1000900002C005900D92A837B107D9F710E0C5E36B
:1000A000D0E004C02197FE010E94A304C433D1070D
:1000B000C9F70E9420030C949B060C9400003FB7E4
:1000C000F89480917E0190917F01A0918001B09180
:1000D000810126B5A89B05C02F3F19F00196A11DEF
:1000E000B11D3FBFBA2FA92F982F8827BC01CD0182
:1000F000620F711D811D911D42E0660F771F881FE1
:10010000991F4A95D1F70895AF92BF92CF92DF928F
:10011000EF92FF920F931F93CF93DF936C017B01BC
:100120008B01040F151FEB015E01AE18BF08C0174D
:10013000D10759F06991D601ED91FC910190F081C0
:10014000E02DC6010995892B79F7C501DF91CF9183
:100150001F910F91FF90EF90DF90CF90BF90AF90E5
:100160000895FC01538D448D252F30E0842F90E0BD
:10017000821B930B541710F0CF96089501970895A2
:10018000FC01918D828D981761F0A28DAE0FBF2F6B
:10019000B11D5D968C91928D9F5F9F73928F90E0C1
:1001A00008958FEF9FEF0895FC01918D828D981730
:1001B00031F0828DE80FF11D858D90E008958FEF6D
:1001C0009FEF0895FC01918D228D892F90E0805C36
:1001D0009F4F821B91098F739927089582E891E0C0
:1001E0000E94E20021E0892B09F420E0822F08958B
:1001F00080E090E0892B29F00E94EE0081110C94A0
:1002000000000895FC01A48DA80FB92FB11DA35AB9
:10021000BF4F2C91848D90E001968F739927848F26
:10022000A689B7892C93A089B1898C918370806449
:100230008C93938D848D981306C00288F389E02DEA
:1002400080818F7D80830895EF92FF920F931F939B
:10025000CF93DF93EC0181E0888F9B8D8C8D981379
:100260001AC0E889F989808185FF15C09FB7F89485
:10027000EE89FF896083E889F989808183708064D1
:1002800080839FBF81E090E0DF91CF911F910F911C
:10029000FF90EF900895F62E0B8D10E00F5F1F4F2B
:1002A0000F731127E02E8C8D8E110CC00FB607FC3A
:1002B000FACFE889F989808185FFF5CFCE010E94C8
:1002C0000201F1CFEB8DEC0FFD2FF11DE35AFF4F33
:1002D000F0829FB7F8940B8FEA89FB898081806256
:1002E000CFCFCF93DF93EC01888D8823B9F0AA8913
:1002F000BB89E889F9898C9185FD03C0808186FDE1
:100300000DC00FB607FCF7CF8C9185FFF2CF80812F
:1003100085FFEDCFCE010E940201E9CFDF91CF91A1
:100320000895FC0101900020E9F73197AF01481BC7
:10033000590BBC0182E891E00C948400CF93DF93C9
:10034000FC01448155816081718182E891E00E94C5
:100350008400EC0142E050E068E171E082E891E065
:100360000E9484008C0F9D1FDF91CF910895FC01A6
:1003700080819181009711F00C94450508950F93A9
:100380001F93CF93DF93EC0188819981009759F0F7
:100390002A813B812617370730F081E0DF91CF912A
:1003A0001F910F9108958B016F5F7F4F0E94CE05C3
:1003B000009759F0998388831B830A832C813D81A0
:1003C000232B59F7FC011082E8CF80E0E7CFEF92B2
:1003D000FF920F931F93CF93DF93EC017B018A0170
:1003E000BA010E94BF0128813981811114C02115F1
:1003F000310519F0C9010E944505198218821D8234
:100400001C821B821A82CE01DF91CF911F910F9126
:10041000FF90EF9008951D830C83B701C9010E94DE
:100420009406F1CF9F92AF92BF92CF92DF92EF925C
:10043000FF920F931F93CF93DF9300D0CDB7DEB71A
:100440008C016B01942EDC0111961C921E92139666
:100450001C921E92129715961C921E92149750E0B1
:1004600040E06AE171E00E94E701F12CE12CF60125
:1004700084819581E816F90690F50190F081E02DD0
:10048000309751F510927801E8E7F1E080818925F5
:1004900089831A82D8011496AD90BC90BFEFAB1A35
:1004A000BB0AB501C8010E94BF01882389F0F80189
:1004B0002081318184819581BE016F5F7F4F820FE2
:1004C000931F0E949406D8011596BC92AE92149781
:1004D000BFEFEB1AFB0ACBCFEE0DFF1DD7CFC80144
:1004E0000F900F90DF91CF911F910F91FF90EF90A0
:1004F000DF90CF90BF90AF909F9008951F920F9282
:100500000FB60F9211242F933F938F939F93AF9326
:10051000BF9380917A0190917B01A0917C01B09171
:100520007D013091790123E0230F2D3758F5019695
:10053000A11DB11D2093790180937A0190937B01D5
:10054000A0937C01B0937D0180917E0190917F0109
:10055000A0918001B09181010196A11DB11D8093F0
:100560007E0190937F01A0938001B0938101BF91A0
:10057000AF919F918F913F912F910F900FBE0F9050
:100580001F90189526E8230F0296A11DB11DD2CF0A
:100590001F920F920FB60F9211242F933F934F93F8
:1005A0005F936F937F938F939F93AF93BF93EF93DB
:1005B000FF9382E891E00E940201FF91EF91BF91C9
:1005C000AF919F918F917F916F915F914F913F91EB
:1005D0002F910F900FBE0F901F9018951F920F92A2
:1005E0000FB60F9211242F938F939F93EF93FF9346
:1005F000E0919201F09193018081E0919801F09156
:10060000990182FD1BC0908180919B018F5F8F7348
:1006100020919C01821741F0E0919B01F0E0EE57A0
:10062000FE4F958F80939B01FF91EF919F918F914A
:100630002F910F900FBE0F901F9018958081F4CFCF
:10064000CF93DF93CDB7DEB768970FB6F894DEBFD0
:100650000FBECDBF789484B5826084BD84B58160BF
:1006600084BD85B5826085BD85B5816085BD80917D
:100670006E00816080936E001092810080918100F5
:1006800082608093810080918100816080938100ED
:10069000809180008160809380008091B1008460AF
:1006A0008093B1008091B00081608093B000809110
:1006B0007A00846080937A0080917A0082608093CF
:1006C0007A0080917A00816080937A0080917A002C
:1006D000806880937A001092C100E0919201F091BD
:1006E000930182E08083E0918E01F0918F0110826E
:1006F000E0919001F091910180E1808310929A0144
:10070000E0919601F091970186E08083E091940159
:10071000F0919501808180618083E0919401F09156
:100720009501808188608083E0919401F09195012A
:10073000808180688083E0919401F09195018081AF
:100740008F7D80830E945F004B015C0188EEC82E84
:1007500083E0D82EE12CF12C0E945F006819790902
:100760008A099B09683E734081059105A8F321E041
:10077000C21AD108E108F10888EE880E83E0981EBD
:10078000A11CB11CC114D104E104F10429F71C8A95
:100790001B8A1E8A1D8A188E1F8A41E250E06BE177
:1007A00071E0CE0143960E94E7018DE391E00E9443
:1007B0009101CE0143960E949E011A8219821C82E9
:1007C0001B821E821D826B897C896115710531F047
:1007D0004F89588DCE0101960E94E7014AEABE0179
:1007E0006F5F7F4FCE010D960E941202CE010196DF
:1007F0000E94B70180E591E00E949101CE010D9623
:100800000E949E011A8219821C821B821E821D82F6
:100810006D857E856115710531F049895A89CE0152
:1008200001960E94E7014FEABE016F5F7F4FCE0144
:1008300007960E941202CE0101960E94B70184E63B
:1008400091E00E949101CE0107960E949E01CE0187
:1008500007960E94B701CE010D960E94B701CE0106
:1008600043960E94B70100E010E001151105E9F37D
:100870000E94EE008823C9F30E940000F6CFE2E850
:10088000F1E01382128288EE93E0A0E0B0E084836E
:100890009583A683B7838AE091E09183808385EC7A
:1008A00090E09587848784EC90E09787868780EC3A
:1008B00090E0918B808B81EC90E0938B828B82EC2B
:1008C00090E0958B848B86EC90E0978B868B118ED5
:1008D000128E138E148E08952F923F924F925F9234
:1008E0006F927F928F929F92AF92BF92CF92DF9240
:1008F000EF92FF920F931F93CF93DF93CDB7DEB7A5
:10090000CA1BDB0B0FB6F894DEBF0FBECDBF099438
:100910002A88398848885F846E847D848C849B848F
:10092000AA84B984C884DF80EE80FD800C811B819D
:10093000AA81B981CE0FD11D0FB6F894DEBF0FBECC
:10094000CDBFED010895EE0FFF1F0590F491E02D4E
:1009500009940F931F93CF93DF938230910510F486
:1009600082E090E0E0912102F091220230E020E06C
:10097000B0E0A0E0309799F42115310509F44AC0A0
:10098000281B390B24303105D8F58A819B816115EC
:10099000710589F1FB0193838283FE0111C04081BF
:1009A00051810281138148175907E0F04817590710
:1009B00099F4109761F012960C93129713961C936A
:1009C0003296CF01DF91CF911F910F91089500933F
:1009D000210210932202F4CF2115310551F0421764
:1009E000530738F0A901DB019A01BD01DF01F801CD
:1009F000C1CFEF01F9CF9093220280932102CDCF96
:100A0000FE01E20FF31F8193919322503109398344
:100A10002883D7CF20911F0230912002232B41F44D
:100A200020910201309103013093200220931F0294
:100A300020910001309101012115310541F42DB7BC
:100A40003EB74091040150910501241B350BE09104
:100A50001F02F0912002E217F307A0F42E1B3F0BB8
:100A60002817390778F0AC014E5F5F4F2417350720
:100A700048F04E0F5F1F5093200240931F02819356
:100A800091939FCFF0E0E0E09CCFCF93DF9300976E
:100A9000E9F0FC01329713821282A0912102B091F9
:100AA0002202ED0130E020E01097A1F42081318195
:100AB000820F931F20911F023091200228173907BF
:100AC00009F061C0F0932002E0931F02DF91CF9103
:100AD0000895EA01CE17DF07E8F54A815B819E01A0
:100AE00041155105B1F7E901FB83EA834991599119
:100AF000C40FD51FEC17FD0761F480819181029628
:100B0000840F951FE90199838883828193819B8358
:100B10008A83F0E0E0E012968D919C911397009704
:100B2000B9F52D913C911197CD010296820F931F3B
:100B300020911F02309120022817390739F630978B
:100B400051F51092220210922102B0932002A0933C
:100B50001F02BCCFD383C28340815181840F951F74
:100B6000C817D90761F44E5F5F4F88819981480F9C
:100B7000591F518340838A819B81938382832115EE
:100B8000310509F0B0CFF0932202E09321029ECF0D
:100B9000FD01DC01C0CF13821282D7CFB0E0A0E00C
:100BA000E4EDF5E00C946E048C01009751F4CB0158
:100BB0000E94A9048C01C801CDB7DEB7E0E10C9416
:100BC0008A04FC01E60FF71F9C0122503109E2174D
:100BD000F30708F49DC0D901CD91DC911197C61798
:100BE000D70798F0C530D10530F3CE0104978617AA
:100BF000970708F3C61BD70B2297C193D1936D9328
:100C00007C93CF010E944505D6CF5B01AC1ABD0A8B
:100C10004C018C0E9D1EA0912102B0912202512CFC
:100C2000412CF12CE12C109731F580911F0290910D
:100C300020028815990509F05CC04616570608F091
:100C400058C08091000190910101009741F48DB747
:100C50009EB74091040150910501841B950BE81744
:100C6000F90708F055C0F0932002E0931F02F90144
:100C700071836083A0CF8D919C91119712966C9097
:100C8000129713967C901397A815B90559F56C0126
:100C900042E0C40ED11CCA14DB0420F1AC014A1995
:100CA0005B09DA011296159780F062827382518394
:100CB0004083D9016D937C93E114F10471F0D70165
:100CC0001396FC93EE93129776CF22968C0F9D1F6E
:100CD000F90191838083F301EFCFF0932202E09337
:100CE000210269CF4816590608F42C017D01D30171
:100CF0009ACFCB010E94A9047C01009749F0AE0174
:100D0000B8010E948B06C8010E944505870153CF98
:100D100010E000E050CFFB01DC0102C001900D9219
:100D200041505040D8F70895FB01DC0101900D922D
:0A0D30000020E1F70895F894FFCFCA
:100D3A000000230280000000000024018400B100AA
:100D4A007101E200C000D4000D0A00596F752068D5
:100D5A00617665206465637279707465642074686D
:100D6A006973206D6573736167652121004F72692C
:100D7A0067696E616C204D6573736167653A20001F
:100D8A00456E63727970746564204D65737361672B
:100D9A00653A2000446563727970746564204D6514
:080DAA0073736167653A2000D4
:00000001FF
