:020000040000FA
:100000000C945D010C9485010C9485010C94850180
:100010000C9485010C9485010C9485010C94850148
:100020000C9485010C9485010C9485010C94850138
:100030000C9485010C9485010C9485010C94850128
:100040000C94A5030C9485010C9415040C94EF03F7
:100050000C9485010C9485010C9485010C94850108
:100060000C9485010C9485010000000024002700F9
:100070002A0052096AD53036A538BF40A39E81F3C5
:10008000D7FB7CE339829B2FFF87348E4344C4DE49
:10009000E9CB547B9432A6C2233DEE4C950B42FA39
:1000A000C34E082EA16628D924B2765BA2496D8B77
:1000B000D12572F8F66486689816D4A45CCC5D6588
:1000C000B6926C704850FDEDB9DA5E154657A78DB3
:1000D0009D8490D8AB008CBCD30AF7E45805B8B324
:1000E0004506D02C1E8FCA3F0F02C1AFBD030113BE
:1000F0008A6B3A9111414F67DCEA97F2CFCEF0B4A8
:10010000E67396AC7422E7AD3585E2F937E81C75E5
:10011000DF6E47F11A711D29C5896FB7620EAA18E3
:10012000BE1BFC563E4BC6D279209ADBC0FE78CD72
:100130005AF41FDDA8338807C731B1121059278040
:10014000EC5F60517FA919B54A0D2DE57A9F93C9DF
:100150009CEFA0E03B4DAE2AF5B0C8EBBB3C83530F
:100160009961172B047EBA77D626E169146355216D
:100170000C7D637C777BF26B6FC53001672BFED7FC
:10018000AB76CA82C97DFA5947F0ADD4A2AF9CA420
:1001900072C0B7FD9326363FF7CC34A5E5F171D890
:1001A000311504C723C31896059A071280E2EB277E
:1001B000B27509832C1A1B6E5AA0523BD6B329E3A1
:1001C0002F8453D100ED20FCB15B6ACBBE394A4C81
:1001D00058CFD0EFAAFB434D338545F9027F503C01
:1001E0009FA851A3408F929D38F5BCB6DA2110FF2D
:1001F000F3D2CD0C13EC5F974417C4A77E3D645D2A
:10020000197360814FDC222A908846EEB814DE5EB6
:100210000BDBE0323A0A4906245CC2D3AC6291950A
:10022000E479E7C8376D8DD54EA96C56F4EA657A46
:10023000AE08BA78252E1CA6B4C6E8DD741F4BBDE7
:100240008B8A703EB5664803F60E613557B986C194
:100250001D9EE1F8981169D98E949B1E87E9CE55B1
:1002600028DF8CA1890DBFE6426841992D0FB0545B
:10027000BB1600000000250028002B000404040425
:100280000404040402020202020203030303030340
:10029000010204081020408001020408102001021D
:1002A00004081020000000080002010000030407F9
:1002B0000000000000000000470411241FBECFEF23
:1002C000D8E0DEBFCDBF11E0A0E0B1E0ECEFFEE092
:1002D00002C005900D92A436B107D9F723E0A4E639
:1002E000B1E001C01D92A032B207E1F711E0CDE507
:1002F000D1E004C02197FE010E947607CC35D107DA
:10030000C9F70E94A6040C947C070C940000E1EB52
:10031000F2E02491EDE9F2E09491E9E8F2E0E49171
:10032000EE23C9F0222339F0233001F1A8F4213063
:1003300019F1223029F1F0E0EE0FFF1FEE58FD4FCA
:10034000A591B4912FB7F894EC91811126C09095A6
:100350009E239C932FBF08952730A9F02830C9F021
:10036000243049F7209180002F7D03C02091800028
:100370002F7720938000DFCF24B52F7724BDDBCFEC
:1003800024B52F7DFBCF2091B0002F772093B000B4
:10039000D2CF2091B0002F7DF9CF9E2BDACFDB0199
:1003A000FC01242F3C91308311963C9111973183AD
:1003B00012963C911297328313963C911397338394
:1003C000245014963496243068F72CEF240F269589
:1003D000269530E02F5F3F4F220F331F220F331F30
:1003E0004370DB01A20FB31FFC01E20FF31F41506A
:1003F00018F08D918193FBCF08953FB7F8948091C9
:10040000790190917A01A0917B01B0917C0126B590
:10041000A89B05C02F3F19F00196A11DB11D3FBF3C
:10042000BA2FA92F982F8827BC01CD01620F711D0B
:10043000811D911D42E0660F771F881F991F4A9505
:10044000D1F708958F929F92AF92BF92CF92DF9291
:10045000EF92FF924B015C010E94FD016B017C0158
:100460000E94FD016C197D098E099F09683E734049
:1004700081059105A8F321E0821A9108A108B1082D
:1004800088EEC80E83E0D81EE11CF11C8114910493
:10049000A104B10429F7FF90EF90DF90CF90BF90B7
:1004A000AF909F908F900895AF92BF92CF92DF92BE
:1004B000EF92FF920F931F93CF93DF936C017B0119
:1004C0008B01040F151FEB015E01AE18BF08C017AA
:1004D000D10759F06991D601ED91FC910190F0811D
:1004E000E02DC6010995892B79F7C501DF91CF91E0
:1004F0001F910F91FF90EF90DF90CF90BF90AF9042
:100500000895FC01538D448D252F30E0842F90E019
:10051000821B930B541710F0CF96089501970895FE
:10052000FC01918D828D981761F0A28DAE0FBF2FC7
:10053000B11D5D968C91928D9F5F9F73928F90E01D
:1005400008958FEF9FEF0895FC01918D828D98178C
:1005500031F0828DE80FF11D858D90E008958FEFC9
:100560009FEF0895FC01918D228D892F90E0805C92
:100570009F4F821B91098F73992708958DE791E012
:100580000E94B20221E0892B09F420E0822F089515
:1005900080E090E0892B29F00E94BE0281110C942A
:1005A00000000895FC01A48DA80FB92FB11DA35A16
:1005B000BF4F2C91848D90E001968F739927848F83
:1005C000A689B7892C93A089B1898C9183708064A6
:1005D0008C93938D848D981306C00288F389E02D47
:1005E00080818F7D80830895EF92FF920F931F93F8
:1005F000CF93DF93EC0181E0888F9B8D8C8D9813D6
:100600001AC0E889F989808185FF15C09FB7F894E1
:10061000EE89FF896083E889F9898081837080642D
:1006200080839FBF81E090E0DF91CF911F910F9178
:10063000FF90EF900895F62E0B8D10E00F5F1F4F87
:100640000F731127E02E8C8D8E110CC00FB607FC96
:10065000FACFE889F989808185FFF5CFCE010E9424
:10066000D202F1CFEB8DEC0FFD2FF11DE35AFF4FBE
:10067000F0829FB7F8940B8FEA89FB8980818062B2
:10068000CFCFCF93DF93EC01888D8823B9F0AA896F
:10069000BB89E889F9898C9185FD03C0808186FD3D
:1006A0000DC00FB607FCF7CF8C9185FFF2CF80818C
:1006B00085FFEDCFCE010E94D202E9CFDF91CF912D
:1006C0000895CF93DF93FC01EB01DA019C01205FD9
:1006D0003F4F88819C9189278083898111969C91C5
:1006E0001197892781838A8112969C911297892775
:1006F00082838B8113969C911397892783833496E9
:1007000024961496E217F30721F7DF91CF9108950D
:10071000CF93DF93FC0101900020E9F73197AF01FF
:10072000481B590BBC018DE791E00E945402EC017B
:1007300042E050E062E371E08DE791E00E945402F4
:100740008C0F9D1FDF91CF9108951F920F920FB6CE
:100750000F9211242F933F938F939F93AF93BF9347
:100760008091750190917601A0917701B091780107
:100770003091740123E0230F2D3758F50196A11D08
:10078000B11D209374018093750190937601A0931D
:100790007701B09378018091790190917A01A091CD
:1007A0007B01B0917C010196A11DB11D809379015F
:1007B00090937A01A0937B01B0937C01BF91AF919C
:1007C0009F918F913F912F910F900FBE0F901F908F
:1007D000189526E8230F0296A11DB11DD2CF1F92B6
:1007E0000F920FB60F9211242F933F934F935F9365
:1007F0006F937F938F939F93AF93BF93EF93FF93E9
:100800008DE791E00E94D202FF91EF91BF91AF91ED
:100810009F918F917F916F915F914F913F912F9118
:100820000F900FBE0F901F9018951F920F920FB64A
:100830000F9211242F938F939F93EF93FF93E09147
:100840008D01F0918E018081E0919301F0919401EE
:1008500082FD1BC09081809196018F5F8F732091E4
:100860009701821741F0E0919601F0E0E358FE4FC6
:10087000958F80939601FF91EF919F918F912F918A
:100880000F900FBE0F901F9018958081F4CFEDE769
:10089000F1E01382128288EE93E0A0E0B0E084835E
:1008A0009583A683B78384E291E09183808385EC6E
:1008B00090E09587848784EC90E09787868780EC2A
:1008C00090E0918B808B81EC90E0938B828B82EC1B
:1008D00090E0958B848B86EC90E0978B868B118EC5
:1008E000128E138E148E82E88093110384E8809315
:1008F000120388E8809313038FE98093140392E92D
:100900009093150394E99093160398E99093170335
:100910008093180382EA8093190384EA80931A0370
:1009200088EA80931B038FEA80931C0382EB8093F9
:100930001D0384EB80931E0388EB80931F0386E0E6
:1009400090E090931C0280931B020895CF93DF9355
:10095000CDB7DEB7C454D1090FB6F894DEBF0FBED1
:10096000CDBF789484B5826084BD84B5816084BD38
:1009700085B5826085BD85B5816085BD80916E003D
:10098000816080936E00109281008091810082606E
:1009900080938100809181008160809381008091AB
:1009A00080008160809380008091B100846080939A
:1009B000B1008091B00081608093B00080917A0096
:1009C000846080937A0080917A00826080937A00BC
:1009D00080917A00816080937A0080917A008068AB
:1009E00080937A001092C100E0918D01F0918E0108
:1009F00082E08083E0918901F0918A011082E09188
:100A00008B01F0918C0180E1808310929501E0913F
:100A10009101F091920186E08083E0918F01F09145
:100A20009001808180618083E0918F01F09190013D
:100A3000808188608083E0918F01F09190018081B6
:100A400080688083E0918F01F091900180818F7D9B
:100A50008083EDE9F2E02491E9E8F2E084918823D3
:100A600099F090E0880F991FFC01E859FF4FA5917C
:100A7000B491FC01EE58FD4F859194918FB7F89495
:100A8000EC91E22BEC938FBF68EE73E080E090E096
:100A90000E94220285E391E00E9488039E012B5F61
:100AA0003F4F23963FAF2EAF23971BE1E4E6F1E0E3
:100AB000A0E12A2E11922A94E9F720E130E0309348
:100AC000100320930F038AE080931A0240E160E054
:100AD00071E08DE192E00E94CF0150E040E080E1C2
:100AE00090E001E0B0E1FB2E682FFC01E75EFD4FD6
:100AF0006F01DE0111969D01F60171916F01F901FF
:100B000071939F0123962EAC3FAC23972E163F0680
:100B100099F76F1121C0698170E1372EF30CEA81DA
:100B2000F0E0EE58FE4FE491E027E983EB81F0E03E
:100B3000EE58FE4FE491EA83EC81F0E0EE58FE4F70
:100B4000E491EB83E62FF0E0EE58FE4FE491EC8366
:100B500007FF68C1000F0127BC01635E7D4F6B0179
:100B6000ED90B601681B790B640F751FFB01608166
:100B70006E25F60161936F012A173B0789F70496EA
:100B80004C5F5F4F803B910509F0AECF40E160E1E3
:100B900071E0CE0181960E94CF0140911A02442358
:100BA00009F473C1F0E14F9FA0011124435E5D4F32
:100BB00060E171E0CE0141960E946103E989F0E0B5
:100BC000EE58FF4FE491E98BED89F0E0EE58FF4FCE
:100BD000E491ED8BE98DF0E0EE58FF4FE491E98F61
:100BE000ED8DF0E0EE58FF4FE491ED8F8E8DEA8DA4
:100BF000F0E0EE58FF4FE491EE8FEE89F0E0EE5812
:100C0000FF4FE491EA8FEA89F0E0EE58FF4FE4915C
:100C1000EE8BE82FF0E0EE58FF4FE491EA8B8B89E2
:100C2000EB8DF0E0EE58FF4FE491EB8BE82FF0E016
:100C3000EE58FF4FE491EB8F8F89EF8DF0E0EE5887
:100C4000FF4FE491EF8BE82FF0E0EE58FF4FE49177
:100C5000EF8F8C89E88DF0E0EE58FF4FE491EC8B3C
:100C6000EC8DF0E0EE58FF4FE491E88FE8A1F0E062
:100C7000EE58FF4FE491EC8FE82FF0E0EE58FF4F75
:100C8000E491E8A3E0901A02EA9420E1E29E700168
:100C90001124B701665E7D4F7B018AE192E08E15DB
:100CA0009F0509F4C1C0A7014D5F5F4FBE016F5E94
:100CB0007F4FCE0101960E946103DE0111969E01D5
:100CC0002F5E3F4F25963FAF2EAF259765E070E032
:100CD0009C9111968C91119712963C9112971396B4
:100CE0002C911397B92EBB0C97FDB126982E990C19
:100CF00087FD9126A32EAA0C37FDA126C22ECC0C6F
:100D000027FDC126DB2CDD0CB7FCD126092D000FF9
:100D100097FE04C0592D550F052F01274A2D440F6A
:100D2000A7FC4127FC2DFF0FC7FCF1273D2C330CFE
:100D3000D7FC3126502F550F07FD5127442E440C68
:100D400047FD4126EF2FEE0FF7FDE127792E7324A3
:100D5000582E5526832E8424622E6E26D3245027A7
:100D600044250F2F0E27E32FEB25E925ED25E5255B
:100D7000E427E625F0E0EE58FF4F34912596EEADDE
:100D8000FFAD25973083E22FE925EA25E725E52702
:100D9000E825E027F0E0EE58FF4F2491FB01EF70CB
:100DA000FF2731E1232E312C2C0E3D1EE20DF31DC9
:100DB00020839A259C25D9265D2445256426E62D89
:100DC000F0E0EE58FF4F6490FB013596EF70FF277F
:100DD000E20DF31D6082E82FEB25EC25E725E527E2
:100DE000E825E027F0E0EE58FF4F0491FB013A962A
:100DF000EF70FF27E20DF31D0083149625962EADAC
:100E00003FAD25972C5F3F4F25963FAF2EAF2597DF
:100E10006C5F7F4F6531710509F05ACF30E1E31AFD
:100E2000F1083BCF000F98CE4DE152E0BE016F5E5E
:100E30007F4FCE01C1960E946103A4E6B1E0FE019E
:100E4000F19680819C9189278083818111969C9164
:100E5000119789278183828112969C911297892705
:100E60008283838113969C91139789278383149699
:100E7000349661E0A437B60721F740E1BE016F5D0B
:100E80007F4F84E691E00E94CF018FE0FE01F19652
:100E9000DE01119601900D928A95E1F7188A80E59E
:100EA00091E00E948803CE0101960E94880381E0B0
:100EB0000E94870164EF71E080E090E00E942202CE
:100EC00080E00E94870168EE73E080E090E00E947D
:100ED000220280E090E0892B09F4E8CD0E94BE0256
:100EE000882309F4E3CD0E940000DFCDEE0FFF1F41
:100EF0000590F491E02D0994F894FFCF603DEB103C
:100F000015CA71BE2B73AEF0857D7781B6A9997F26
:100F10004146328D0BD2EF7A96E480D90000000072
:100F2000F402540281024103B2029002A4020D0AAB
:100F3000004145532064656372797074696F6E2057
:100F40007374617274696E672E2E2E00446563722D
:100F50007970746564206D6573736167653A00002C
:107E0000112484B714BE81FFF0D085E080938100F7
:107E100082E08093C00088E18093C10086E0809377
:107E2000C20080E18093C4008EE0C9D0259A86E02C
:107E300020E33CEF91E0309385002093840096BBD3
:107E4000B09BFECF1D9AA8958150A9F7CC24DD24C4
:107E500088248394B5E0AB2EA1E19A2EF3E0BF2EE7
:107E6000A2D0813461F49FD0082FAFD0023811F036
:107E7000013811F484E001C083E08DD089C08234E0
:107E800011F484E103C0853419F485E0A6D080C0E4
:107E9000853579F488D0E82EFF2485D0082F10E0AE
:107EA000102F00270E291F29000F111F8ED06801E7
:107EB0006FC0863521F484E090D080E0DECF843638
:107EC00009F040C070D06FD0082F6DD080E0C81688
:107ED00080E7D80618F4F601B7BEE895C0E0D1E017
:107EE00062D089930C17E1F7F0E0CF16F0E7DF06D8
:107EF00018F0F601B7BEE89568D007B600FCFDCFD4
:107F0000A601A0E0B1E02C9130E011968C91119780
:107F100090E0982F8827822B932B1296FA010C0160
:107F200087BEE89511244E5F5F4FF1E0A038BF0790
:107F300051F7F601A7BEE89507B600FCFDCF97BE46
:107F4000E89526C08437B1F42ED02DD0F82E2BD052
:107F50003CD0F601EF2C8F010F5F1F4F84911BD097
:107F6000EA94F801C1F70894C11CD11CFA94CF0C13
:107F7000D11C0EC0853739F428D08EE10CD085E9AC
:107F80000AD08FE07ACF813511F488E018D01DD067
:107F900080E101D065CF982F8091C00085FFFCCF94
:107FA0009093C60008958091C00087FFFCCF809118
:107FB000C00084FD01C0A8958091C6000895E0E648
:107FC000F0E098E1908380830895EDDF803219F02E
:107FD00088E0F5DFFFCF84E1DECF1F93182FE3DFCA
:107FE0001150E9F7F2DF1F91089580E0E8DFEE27F6
:047FF000FF270994CA
:027FFE00040479
:00000001FF
